:04000000FFEF01F01D
:08000800046ED8CF05F0E0CF33
:1000100006F00001E9CF0CF0EACF07F0E1CF08F0DD
:10002000E2CF09F0D9CF0AF0DACF0BF0F3CF12F01C
:10003000F4CF13F0FACF14F0F5CF15F0F6CF16F099
:10004000F7CF17F000C00EF001C00FF002C010F0A3
:1000500003C011F0F2AA30EF00F0F2B45DEF00F04F
:100060009DAA36EF00F09EBAA7EF00F00EC000F098
:100070000FC001F010C002F011C003F00CC0E9FF86
:1000800007C0EAFF078E08C0E1FF09C0E2FF0AC00F
:10009000D9FF0BC0DAFF12C0F3FF13C0F4FF14C086
:1000A000FAFF15C0F5FF16C0F6FF17C0F7FF0450A2
:1000B00006C0E0FF05C0D8FF1000F29436EF00F054
:1000C0009EAAFED7ABCF1BF0AECF01F01BA202D091
:1000D000AB98AB88B8EF00F040C0E9FF41C0EAFF41
:1000E000EFCF44F043C003F042C0E9FF43C0EAFF52
:1000F000EF50445C15E141C003F040C0E9FF03C08C
:10010000EAFFEF5203E1000E016E1FD041C003F081
:100110004050402AD8B4412A422AD8B4432ADCD7D6
:1001200041C003F040C0E9FF41C0EAFFEFCF44F017
:1001300043C003F042C0E9FF43C0EAFFEF50445C14
:1001400002E2FF0E01D0010E016EC8EF00F0036A5B
:1001500029C002F0D890023603360250200FE96E13
:10016000000E0320EA6EEACF43F0E9CF42F0A8D7B1
:1001700043C0EAFF42C0E9FF0150EF6EEC6A1DC0C8
:1001800041F01CC040F021C043F020C042F0A4D791
:10019000015209E0285207E1292A2950030803E205
:1001A000296A010E286E9E9A36EF00F0494E2025EE
:1001B000640A00004F55542025640A00016A026A4F
:1001C000006A036A375002E1365018E0100E386EAC
:1001D000D89034363536003603363750035C02E1AA
:1001E0003650005C07E33650005ED8A00306375057
:1001F000035ED88001360236382EEAD758EF02F077
:100200003E50016A3D5C03E23DC000F00CD0006A44
:10021000080E3F6E3D3600363E50005CD8B0006E92
:1002200001363F2EF7D71200EA6A380EE96EEF501A
:100230000DE0060E016E006A002EFED7012EFBD7E0
:100240007B0E006E002EFED7EF2EF3D763EF01F08A
:10025000366A100E376E355219E1010E356E100EEA
:10026000376E345063080AE2200E366E34C03DF01B
:10027000640E3E6EC5DF01C034F007D034C03DF0DF
:100280000A0E3E6EBDDF01C034F01AD0356A400E52
:10029000376E345063080DE234C03DF00A0E3E6EF6
:1002A000AFDF01C03DF00A0E3E6EAADF00C034F0A1
:1002B00007D034C03DF00A0E3E6EA2DF00C034F01D
:1002C000960E386EB1D7345037103610936A8A6E56
:1002D00035C001F06EEF02F00900F6CF38F0F7CF2D
:1002E00039F0F5509EA8FED7AD6E38C0F6FF39C084
:1002F000F7FF372EF1D71200200E38A8300E396ED6
:1003000037C000F037AE08D0001E002A00C037F01A
:100310002D0E396E388E3880015037C03DF0640E96
:100320003E6E6EDF00C037F0300E01243A6E37C0EB
:100330003DF00A0E3E6E64DF300E00243C6E300E3F
:1003400001243B6E39C000F0300E3A5C04E0388284
:1003500038BE388412D039C03AF0200E396E300ED3
:100360003B5C04E0388038BE388207D0D8A438809F
:1003700004E13AC03BF0200E3A6E38B405D038B2F2
:1003800007D038B009D00CD039509EA8FED7AD6E3A
:100390003A509EA8FED7AD6E3B509EA8FED7AD6EDC
:1003A0003C509EA8FED7AD6E12003450355C13E26F
:1003B000AC0EF66E010EF76E030E376E8DDF35C094
:1003C00037F0180E386E98DF0A0E9EA8FED7AD6E75
:1003D00096908D8012D0B40EF66E010EF76E040E5C
:1003E000376E7ADF35C037F0180E386E85DF0A0EAB
:1003F0009EA8FED7AD6E96928D7277EF02F0F86AE6
:10040000D09E078E1B6A810EAF6EA60EAC6E900E4C
:10041000AB6E286A296AC180C182C184C196070E69
:10042000B46E196A1A6A230E1E6E1F6A1D6A1E0EAA
:100430001C6E800ED56EF28A9D8AC00EF212D26AB0
:100440002A6A306A780E2F6E285215E0300E225C30
:10045000316E300E245C326E300E265C336E3150BD
:10046000640DF3CF34F032500A0DF35034243324AA
:100470002F6E306A286A94908B80210E006E002EB9
:10048000FED794908B90948282A2FDD7D76AD66AC9
:100490000000948282B2FDD7D6502B6ED7CF2CF0BD
:1004A0002CC035F02BC034F0376A910E366E86D6EC
:1004B00002C02EF001C02DF02E5002080AE2FF0A01
:1004C00003E12D50E70805E2936A8A6A939A8A8AC3
:1004D00007D02DC034F02AC035F0BAD601C02AF0BA
:1004E0002FC034F02DC035F02AC036F05ED7ACD71F
:0204F000030007
:020000040030CA
:0E00000000220E0E000081000FC00FE00F4026
:00000001FF
;PIC18F448
;CRC=A09B  CREATED="17-5-22 06:39"
